:10000000E3C2FDC2FCC2A5C8FAC2F9C2D6C8F7C293
:10001000F6C2F5C2F4C2C0C8F2C224C9F0C2EFC22F
:10002000EEC2FBC8ECC2EBC2EAC2E9C2E8C2E7C258
:10003000E6C2E5C2E4C2E3C2E2C2E1C2576173684C
:10004000204F4E20666F7220256C64206D73202D2A
:1000500020776970696E67210A00576173682074A0
:10006000726967676572656420617420256C643B02
:1000700020776970652074696D656F7574203D2007
:100080002575206D732C20636F756E74203D2025BF
:10009000750A0057697065722072656C6179204F2E
:1000A00046460A0025752077697065732072656D74
:1000B00061696E696E670A00476F74204155544F3D
:1000C00053544F50203D204F4646210A0054696D3D
:1000D0006564206F7574210A0057616974696E67E1
:1000E00020666F72204155544F53544F50203D208D
:1000F0004F464620282575206D732074696D656F05
:100100007574292E2E2E0A00476F74204155544FC6
:1001100053544F50203D204F4E210A0054696D65C5
:1001200064206F7574210A0057616974696E6720D5
:10013000666F72204155544F53544F50203D204F0D
:100140004E20282575206D732074696D656F757458
:10015000292E2E2E0A0057697065722072656C6117
:1001600079204F4E0A00576970696E672025752007
:1001700074696D65732E2E2E0A0053746F7070654E
:10018000642077616974696E673B20256C64206D1B
:100190007320656C61707365640A005761697469E6
:1001A0006E6720666F7220696E74657276616C2E60
:1001B0002E2E0A00576970696E6720696D6D65643F
:1001C000696174656C790A00496E7465726D697451
:1001D00074656E74207769706520747269676765ED
:1001E000726564210A0056535320696E707574203D
:1001F00069732025533B2073706565642D6D6170B4
:1002000070696E672025530A004C4F5700484947D4
:100210004800656E61626C65640064697361626C5C
:100220006564000A002575002C20002575203D20FE
:10023000004F4B0A004552524F522C207573696E85
:10024000672064656661756C740A00496E76616C3E
:1002500069642076616C7565202825752C257520CC
:100260003D202575293B206F7574206F66207261D3
:100270006E6765210A005370656564206D617020AA
:10028000696E742E20766F6C2E2073657474696E9F
:1002900067733A0A004F4B0A004552524F522C20C6
:1002A0007573696E672064656661756C740A0053C6
:1002B00070656564206D61702056535320746872B8
:1002C0006573686F6C64733A0A0025750A004F4BBA
:1002D0000A004552524F522C207573696E67206494
:1002E000656661756C740A00576173682077697080
:1002F0006520636F756E743A0A0025750A004F4BCE
:100300000A004552524F522C207573696E67206463
:10031000656661756C740A0057617368207769704F
:10032000652074696D656F75743A0A004F4B0A0059
:100330004552524F522C207573696E672064656672
:1003400061756C740A00496E742E20766F6C2E20D5
:10035000696E74657276616C733A0A002575203D8A
:100360002025750A00496E76616C69642076616C9F
:100370007565207061697220282575203D202575DE
:100380002C202575203D202575293B206E6F74207B
:10039000617363656E64696E67210A00496E7661F8
:1003A0006C69642076616C756520282575203D2078
:1003B0002575293B206E6F7420696E2072616E670F
:1003C000652025752D2575210A004F4B0A004552E1
:1003D000524F522C207573696E6720646566617593
:1003E0006C740A00496E742E20766F6C2E2074682F
:1003F000726573686F6C64733A0A0056616C696465
:100400006174696E6720636F6E6669672076616CE0
:100410007565732E2E2E0A004C6F6164696E67201D
:100420002575206279746573206F6620636F6E6630
:10043000696720646174612066726F6D2045455064
:10044000524F4D2E2E2E0A00576F6B65207570216E
:100450000A00476F696E6720746F20736C65657062
:100460002E2E2E0A00565353203D20257520487A03
:100470000A00565353203D204E2F412028737065AB
:1004800065642D6D617070696E6720646973616267
:100490006C6564290A00494E54564F4C2041444330
:1004A000203D2025753B2073657474696E67202894
:1004B000636D64202F2061637429203D2025752001
:1004C0002F2025753B20696E74657276616C203D26
:1004D000202575206D730A0057415348205357203B
:1004E0003D202553202870726576203D2025532914
:1004F0000A00494E54205357203D20255320287090
:10050000726576203D202553290A00535953205403
:1005100053203D20256C640A004F4646004F4E0094
:100520004F534343414C30203D20307825582028FC
:1005300061646A7573746D656E74206F66202564DE
:10054000290A002D2D2D2D2D2D2D2D2D2D2D2D2D2F
:100550002D2D2D2D2D2D2D2D2D2D2D2D2D2D2D2DCB
:100560002D2D2D2D2D2D2D2D2D2D2D0A0008050283
:10057000010008060403020806050403080706052F
:100580000408070605040808070606080807070602
:1005900008080807070808080808000005000A00FE
:1005A0000F00140008079808AC0DF811E015901A18
:1005B000401F8C23E4253E00E800920123029B02A9
:1005C0000B036E03AB03FF0311241FBECFEFD2E07A
:1005D000DEBFCDBF11E0A0E0B1E0E6E5F9E102C089
:1005E00005900D92A230B107D9F721E0A2E0B1E069
:1005F00001C01D92A638B207E1F7B9D1AAC900CD52
:1006000086B3869581708093130186B38170809341
:100610001201089510920D01E2E2F1E080E090E015
:100620004191519120910E0130910F0142175307D2
:1006300018F080930D0104C001968930910581F76F
:1006400080910D0180930C0180910201811121C0E4
:10065000E9E4F1E020E030E041915191809107011F
:10066000909108014817590778F080910D0190E0AA
:1006700065E070E054D68E5D9E4FFC01E20FF31FE3
:1006800081A980930C0105C02F5F3F4F25303105B4
:1006900019F7E0910C01F0E0EE0FFF1FEC5CFE4F4C
:1006A0008081918190930B0180930A010895CF92EC
:1006B000DF92EF92FF920F931F939FB7F894C09031
:1006C0000301D0900401E0900501F09006019FBF66
:1006D000E1E0AB0160E070E096B392FB992790F9FE
:1006E00081119E279923B1F09FB7F89400910301DF
:1006F0001091040120910501309106019FBF0C1952
:100700001D092E093F09041715072607370724F38B
:1007100080E001C081E01F910F91FF90EF90DF908A
:10072000CF900895CF93DF93E0E0F0E0E617F7076E
:1007300019F1EC01A991B991CE01A417B507B8F44C
:100740003F932F935F934F93BF93AF93FF93EF9399
:100750008CE993E09F938F93FCD58DB79EB70A9653
:100760000FB6F8949EBF0FBE8DBF80E006C02A175B
:100770003B0730F33196DACF81E0DF91CF910895D6
:100780006230710540F1FC0181E090E0228133810B
:100790004191519142175307D0F05F934F93AC01B1
:1007A000415051095F934F933F932F939F938F93A2
:1007B00085E693E09F938F93CCD58DB79EB70A962D
:1007C0000FB6F8949EBF0FBE8DBF80E008950196CE
:1007D00068177907D9F681E00895CF92DF92EF92FA
:1007E000FF920F931F93CF93DF936B018C01C0E0B7
:1007F000D0E08CE5E82E83E0F82ECC15DD05A1F0E5
:10080000F801808191810E5F1F4F9F938F93DF933B
:10081000CF93FF92EF929DD521960F900F900F905E
:100820000F900F900F90E9CFDF91CF911F910F9113
:10083000FF90EF90DF90CF9008955F926F927F923C
:100840008F929F92AF92BF92CF92DF92EF92FF92E0
:100850000F931F93CF93DF93C82F823058F01F92CE
:100860008F9386E691E09F938F9373D50F900F90AF
:100870000F900F90DF9A86E591E09F938F9369D553
:10088000C1500F900F90D5E08CED782E08E211E06A
:1008900098E0E92E91E0F92E2FE0622E30EA532EF7
:1008A00049EDC42E40E0D42E58EBA52E50E0B52ED5
:1008B00064EA862E60E0962ECF3F09F440C0DF93B5
:1008C0007F921F930F9345D56CED75E081E0EFDECD
:1008D0000F900F900F900F90811103C08CE191E069
:1008E00016C0FF92EF9235D56F925F92DF92CF9252
:1008F00030D560EA7FE080E0DADE0F900F900F9055
:100900000F900F900F90811108C08DEC90E09F9395
:100910008F931FD50F900F9012C0BF92AF9219D531
:100920000F900F90CC2349F01F92CF939F928F92FC
:1009300010D50F900F900F900F90C150BDCFDF9842
:1009400083E990E09F938F9304D50F900F90DF91F0
:10095000CF911F910F91FF90EF90DF90CF90BF90BC
:10096000AF909F908F907F906F905F900895E199E6
:10097000FECF80E090E0A5D7C82F8F778F3769F042
:10098000CC2359F08C2F0C2E000C990B97FF03C031
:1009900091958195910981970CF0C8EF8091740031
:1009A0008C0F8093740080917000806D8093700034
:1009B000D79A809160008067809360008BB78062D7
:1009C0008BBF80B5836080BD469A85B18F6E85B937
:1009D00084B1856084B980916000816080936000FB
:1009E00083B7876083BF89B7816089BF83E89EE151
:1009F0009BBD8ABD8EB58C608EBD799A8EE190E0EC
:100A00009093C5008093C4008091C9008C6080934E
:100A1000C900899A50D485E799E090931D0180938D
:100A20001C0110921F0110921E0182E08093170199
:100A3000109221011092200184E191E090938301B2
:100A40008093820183E495E09F938F9382D4809179
:100A500074002C2F0C2E000C330B3F93CF931F925E
:100A60008F9380E295E09F938F9373D41F928EE5CE
:100A70008F9388E194E09F938F936BD48DB79EB74B
:100A80000C960FB6F8949EBF0FBE8DBFE199FECFB6
:100A90004EE550E061E070E082E291E002D78BEF3A
:100AA00093E09F938F9355D484EE93E09F938F931D
:100AB00050D42FEF33E041E050E069E070E082E293
:100AC00091E030DE0F900F900F900F90882341F04F
:100AD00069E070E082E291E053DE91E0892702C094
:100AE00081E090E080FF0DC08EEC93E09F938F93A8
:100AF00030D442E150E066EB75E082E291E020D430
:100B000005C08AEC93E09F938F9323D40F900F90AE
:100B100069E070E082E291E060DE86E493E09F931A
:100B20008F9317D42EEF3FEF41E050E069E070E083
:100B300084E391E0F7DD0F900F90882341F069E0A6
:100B400070E084E391E01CDE91E0892702C081E03F
:100B500090E080FF0DC080E393E09F938F93F9D3E3
:100B600042E150E064EA75E084E391E0E9D305C036
:100B70008CE293E09F938F93ECD30F900F9069E0FA
:100B800070E084E391E029DE88E193E09F938F9306
:100B9000E0D3809146019091470101970F900F900B
:100BA0008E3F9F4F60F082E093E09F938F93D1D36D
:100BB0008EEE92E0909347018093460105C08EEF40
:100BC00092E09F938F93C5D30F900F908091470130
:100BD0008F93809146018F938AEF92E09F938F933A
:100BE000B8D388EE92E09F938F93B3D3809148015E
:100BF00081500F900F900F900F900F900F908E3F9D
:100C000048F082ED92E09F938F93A3D383E080938B
:100C1000480105C08EEC92E09F938F939AD30F907A
:100C20000F90809148011F928F938AEC92E09F93DE
:100C30008F938FD38FEA92E09F938F938AD32AEF7B
:100C400030E040E050E065E070E089E491E06ADD8A
:100C50000F900F900F900F900F900F90882341F0FE
:100C600065E070E089E491E08BDD91E0892702C0C6
:100C700081E090E080FF0DC089E992E09F938F931F
:100C800068D34AE050E06AE975E089E491E058D31E
:100C900005C085E992E09F938F935BD30F900F90EF
:100CA00065E070E089E491E098DD86E792E09F934B
:100CB0008F934FD30F900F9020E030E0C90165E093
:100CC00070E02DD3FC01ED5AFE4F40E050E08191E1
:100CD000893000F11F928F935F934F933F932F932F
:100CE0008BE492E09F938F9334D385E392E09F93BC
:100CF0008F932FD34DE250E06DE675E083E591E0F0
:100D00001FD38DB79EB70A960FB6F8949EBF0FBE3D
:100D10008DBF11C04F5F5F4F45305105C1F62F5F4A
:100D20003F4F2930310551F681E392E09F938F9335
:100D300010D30F900F90C0E0D0E05BE2852E52E020
:100D4000952E65E2E62E62E0F62E78E2C72E72E07E
:100D5000D72EE3E26E2EE2E07E2EDF93CF939F92BA
:100D60008F92F7D2CE0165E070E0D9D28D5A9E4FB6
:100D70005C010F900F900F900F9000E010E0F501D4
:100D800081915F011F928F93FF92EF92E2D20F5FEA
:100D90001F4F0F900F900F900F900530110531F0FD
:100DA000DF92CF92D6D20F900F90E9CF7F926F92C1
:100DB000D0D221960F900F90C930D10571F699B31A
:100DC00081E0292F287093FF80E080930201211198
:100DD00005C022E132E089E092E004C02AE132E07D
:100DE0008DE092E03F932F939F938F9386EE91E057
:100DF0009F938F93AED204DC0DDC78940F900F900C
:100E00000F900F900F900F9082EF282E84E0382ED5
:100E100098ED892E94E0992EC6E9D4E00AE510E019
:100E20002CE3E22E20E0F22E38ECC32E31E0D32E5C
:100E30004BE9A42E41E0B42E7FB6F89480910301D3
:100E400090910401A0910501B0910601BF93AF9369
:100E50009F938F938BE095E09F938F937AD20F901F
:100E60000F900F900F900F900F90809111018111B2
:100E700003C029E135E002C02DE135E08091130186
:100E8000811103C089E195E002C08DE195E03F93B7
:100E90002F939F938F933F922F925BD20F900F903F
:100EA0000F900F900F900F9080911001811103C04F
:100EB00029E135E002C02DE135E080911201811178
:100EC00003C089E195E002C08DE195E03F932F9347
:100ED0009F938F939F928F923CD220910A013091E1
:100EE0000B0150910C0140910D0180910E019091E8
:100EF0000F013F932F931F925F931F924F939F93E6
:100F00008F93DF93CF9325D2209107013091080171
:100F10008DB79EB740960FB6F8949EBF0FBE8DBF9B
:100F200080910201811103C085E694E002C082E74E
:100F300094E03F932F939F938F930BD27FBE80912A
:100F400013010F900F900F900F90811105C08091A9
:100F50001201882309F4CBC080911301882309F47E
:100F600061C08091120181115DC070901101DF920A
:100F7000CF92EFD10F900F90711008C084EB91E0E9
:100F80009F938F93E6D10F900F904AC0BF92AF927C
:100F9000E0D18FB7F8944090030150900401609025
:100FA0000501709006018FBF0F900F9040E050E058
:100FB000BA0180911301882309F1809112018111F6
:100FC0001DC02FB7F8944091030150910401609126
:100FD0000501709106014419550966097709809148
:100FE0000A0190910B012FBFA0E0B0E0481759070C
:100FF0006A077B07F4F27724739401C0712C7F9306
:101000006F935F934F938AE791E09F938F93A1D162
:101010000F900F900F900F900F900F90772011F07E
:1010200081E00BDC80911201882309F457C0809184
:101030001001811153C08FB7F89440900301509074
:10104000040160900501709006018FBF80914801F6
:101050001F928F93809147018F93809146018F93C8
:101060007F926F925F924F921F930F9372D1EDB761
:10107000FEB73A960FB6F894FEBF0FBEEDBF809153
:101080001201882359F18FB7F894409103015091D0
:101090000401609105017091060144195509660922
:1010A00077098FBF8091460190914701A0E0B0E0A1
:1010B000481759076A077B0714F37F936F935F9371
:1010C0004F93FF92EF9245D1809148010F900F907E
:1010D0000F900F900F900F908111AFDB8091130153
:1010E000809311018091120180931001A5CE82E5B9
:1010F00094E09F938F932DD10DD185B7877E80612A
:1011000085BF809170008FEF8093700085B78062FB
:1011100085BF889585B78F7D85BF80917000807D64
:101120008093700088E494E09F938F9312D1FFEF37
:1011300022E587E0F15020408040E1F700C0000048
:1011400010921101109210010F900F900F900F90BC
:1011500073CE1F920F920FB60F9211242F933F93CD
:101160004F935F936F937F938F939F93AF93BF93AF
:10117000EF93FF9345DAFF91EF91BF91AF919F916C
:101180008F917F916F915F914F913F912F910F9030
:101190000FBE0F901F9018951F920F920FB60F92CF
:1011A00011248F93809109018F5F809309018F91A2
:1011B0000F900FBE0F901F9018951F920F920FB6B1
:1011C0000F9211242F935F936F937F938F939F932D
:1011D00080910001815080930001811113C08091A2
:1011E000090122B790E06FEF70E099D0820F911D56
:1011F000909308018093070112BE1092090184E0C8
:10120000809300019F918F917F916F915F912F91BA
:101210000F900FBE0F901F9018951F920F920FB650
:101220000F9211248F939F93AF93BF9380910301EB
:1012300090910401A0910501B09106010196A11DB4
:10124000B11D8093030190930401A0930501B09315
:101250000601BF91AF919F918F910F900FBE0F909C
:101260001F9018951F920F920FB60F9211242F9373
:101270003F934F935F936F937F938F939F93AF931E
:10128000BF93EF93FF9386B197B190930F01809333
:101290000E01C0D9FF91EF91BF91AF919F918F91B6
:1012A0007F916F915F914F913F912F910F900FBE62
:1012B0000F901F901895D19AD298E3E6F0E08081C4
:1012C00084608083D99A88E090E090938200809334
:1012D0008100E6E8F0E080818D7F808386E0809366
:1012E000840088E0809385000895CF93C82F8A30CA
:1012F00011F48DE0FADF8091860085FFFCCF8091AC
:101300008600806480938600C093800080E090E037
:10131000CF9108958091860086FFFCCF0895002428
:10132000552704C0080E591F880F991F009729F0F0
:1013300076956795B8F37105B9F7802D952F0895C7
:10134000FB01DC0102C005900D9241505040D8F7DE
:101350000895A0E0B0E0EEEAF9E0D2C2AE01495F44
:101360005F4FDA016D917D91AD0100E811E0F80168
:1013700082819381DC0113962C9113972860139638
:101380002C930AD0D8011296ED91FC9113972381EA
:10139000277F2383E4E0D0C2ABE0B0E0E1EDF9E0E9
:1013A000A1C26C017B018A01FC0117821682838134
:1013B00081FFC0C1CE0101963C01F6019381F70186
:1013C00093FD859193FF81917F01882309F4AEC13C
:1013D000853239F493FD859193FF81917F018532A8
:1013E00021F4B60190E0C1D1E8CF912C212C312C11
:1013F000FFE1F315E0F08B3279F038F4803279F0C8
:101400008332A9F4232D206110C08D3259F080332E
:1014100071F4232D216009C0832D8260382EE32DC5
:10142000E46022C0F32DF86025C0322E27C037FCBF
:101430002DC020ED280F2A3088F436FE06C0892DF5
:101440006AE047D2922E980E19C0822D6AE041D2EE
:10145000222E280E832D8062382E10C08E3231F459
:1014600036FC64C1E32DE0643E2E08C08C3621F4C6
:10147000F32DF0683F2E02C0883641F4F70193FD4A
:10148000859193FF81917F018111B2CF982F9F7D2C
:101490009554933028F40C5F1F4F2FE329830DC020
:1014A000833631F0833771F0833509F055C020C0A1
:1014B000F801808189830E5F1F4F88248394912CCB
:1014C000530112C02801F2E04F0E511CF801A08018
:1014D000B18036FE03C0692D70E002C06FEF7FEF70
:1014E000C50138D14C018201F32DFF773F2E15C085
:1014F000280122E0420E511CF801A080B18036FE86
:1015000003C0692D70E002C06FEF7FEFC50117D1F6
:101510004C01F32DF0683F2E820133FC19C0822D5F
:1015200090E088169906A0F4B60180E290E01DD103
:101530002A94F5CFF50137FC859137FE81915F0143
:10154000B60190E012D121102A9421E0821A91086C
:101550008114910479F7E1C0843611F0893639F5A8
:10156000F80137FE07C060817181828193810C5F31
:101570001F4F08C060817181072E000C880B990BEA
:101580000E5F1F4FF32DFF763F2E97FF09C09095FA
:101590008095709561957F4F8F4F9F4FF0683F2EDC
:1015A0002AE030E0A3011DD1882E861844C085377B
:1015B00031F4232D2F7EB22E2AE030E025C0932D6A
:1015C000997FB92E8F36C1F018F4883579F0AEC006
:1015D000803719F0883721F0A9C0E92FE061BE2ECD
:1015E000B4FE0DC0FB2DF460BF2E09C034FE0AC04E
:1015F000292F2660B22E06C028E030E005C020E189
:1016000030E002C020E132E0F801B7FE07C060819F
:101610007181828193810C5F1F4F06C0608171814F
:1016200080E090E00E5F1F4FA301DBD0882E86186C
:10163000FB2DFF773F2E36FE0DC0232D2E7FA22ED1
:10164000891458F434FE0BC032FC09C0832D8E7E01
:10165000A82E05C0B82CA32C03C0B82C01C0B92CEF
:10166000A4FE0FC0FE01E80DF11D8081803321F43E
:101670009A2D997EA92E09C0A2FE06C0B394B394F8
:1016800004C08A2D867809F0B394A3FC10C0A0FE94
:1016900006C0B21480F4280C922C9B180DC0B21412
:1016A00058F4B60180E290E060D0B394F8CFB21461
:1016B00018F42B1802C0982C212CA4FE0FC0B601E0
:1016C00080E390E052D0A2FE16C0A1FC03C088E7E0
:1016D00090E002C088E590E0B6010CC08A2D8678C3
:1016E00051F0A1FE02C08BE201C080E2A7FC8DE2B6
:1016F000B60190E03AD0891430F4B60180E390E06E
:1017000034D09A94F8CF8A94F301E80DF11D8081CA
:10171000B60190E02AD08110F6CF222009F44DCEF8
:10172000B60180E290E021D02A94F7CFF6018681BD
:10173000978102C08FEF9FEF2B96E2E1EFC0FC0193
:101740000590615070400110D8F7809590958E0FEC
:101750009F1F0895FC016150704001900110D8F75F
:10176000809590958E0F9F1F08950F931F93CF9391
:10177000DF93FB01238121FD03C08FEF9FEF2CC07E
:1017800022FF16C0468157812481358142175307B5
:1017900044F4A081B1819D012F5F3F4F31832083AD
:1017A0008C93268137812F5F3F4F3783268314C068
:1017B0008B01EC01FB010084F185E02D0995892B5B
:1017C000E1F6D80116968D919C9117970196179680
:1017D0009C938E931697CE01DF91CF911F910F911D
:1017E0000895FA01AA27283061F1203191F1E89497
:1017F0006F936E7F6E5F7F4F8F4F9F4FAF4FB1E004
:1018000040D0B4E03ED0670F781F891F9A1FA11DFA
:10181000680F791F8A1F911DA11D6A0F711D811DFF
:10182000911DA11D22D009F468943F91062E000C51
:101830003019000C000C3019305D3193CEF6CF0119
:101840000895462F4770405D4193B3E00FD0C9F72C
:10185000F6CF462F4F70405D4A3318F0495D31FD99
:101860004052419302D0A9F7EACFB4E0A6959795EC
:10187000879577956795BA95C9F7009761057105C2
:1018800008959B01AC010A2E06945795479537950C
:101890002795BA95C9F7620F731F841F951FA01D66
:1018A0000895DC01CB01FC01E199FECF06C0FFBB2E
:1018B000EEBBE09A31960DB20D9241505040B8F710
:1018C0000895E199FECF9FBB8EBBE09A99278DB317
:1018D0000895002480FD060E660F11F08695D1F75D
:1018E000802D08952F923F924F925F926F927F9238
:1018F0008F929F92AF92BF92CF92DF92EF92FF9220
:101900000F931F93CF93DF93CDB7DEB7CA1BDB0BCB
:101910000FB6F894DEBF0FBECDBF09942A88398870
:1019200048885F846E847D848C849B84AA84B98477
:10193000C884DF80EE80FD800C811B81AA81B98183
:10194000CE0FD11D0FB6F894DEBF0FBECDBFED0197
:061950000895F894FFCF9A
:0219560004008B
:00000001FF
